{
  "_format": "hh-sol-artifact-1",
  "contractName": "Masks",
  "sourceName": "contracts/Mask.sol",
  "abi": [
    {
      "inputs": [],
      "stateMutability": "nonpayable",
      "type": "constructor"
    },
    {
      "anonymous": false,
      "inputs": [
        {
          "indexed": true,
          "internalType": "address",
          "name": "owner",
          "type": "address"
        },
        {
          "indexed": true,
          "internalType": "address",
          "name": "approved",
          "type": "address"
        },
        {
          "indexed": true,
          "internalType": "uint256",
          "name": "tokenId",
          "type": "uint256"
        }
      ],
      "name": "Approval",
      "type": "event"
    },
    {
      "anonymous": false,
      "inputs": [
        {
          "indexed": true,
          "internalType": "address",
          "name": "owner",
          "type": "address"
        },
        {
          "indexed": true,
          "internalType": "address",
          "name": "operator",
          "type": "address"
        },
        {
          "indexed": false,
          "internalType": "bool",
          "name": "approved",
          "type": "bool"
        }
      ],
      "name": "ApprovalForAll",
      "type": "event"
    },
    {
      "anonymous": false,
      "inputs": [
        {
          "indexed": true,
          "internalType": "address",
          "name": "from",
          "type": "address"
        },
        {
          "indexed": true,
          "internalType": "address",
          "name": "to",
          "type": "address"
        },
        {
          "indexed": true,
          "internalType": "uint256",
          "name": "tokenId",
          "type": "uint256"
        }
      ],
      "name": "Transfer",
      "type": "event"
    },
    {
      "inputs": [
        {
          "internalType": "address",
          "name": "_address",
          "type": "address"
        }
      ],
      "name": "RemoveWhiteList",
      "outputs": [],
      "stateMutability": "nonpayable",
      "type": "function"
    },
    {
      "inputs": [
        {
          "internalType": "address",
          "name": "_address",
          "type": "address"
        },
        {
          "internalType": "uint256",
          "name": "_amount",
          "type": "uint256"
        }
      ],
      "name": "addGift",
      "outputs": [],
      "stateMutability": "nonpayable",
      "type": "function"
    },
    {
      "inputs": [
        {
          "internalType": "address",
          "name": "_address",
          "type": "address"
        }
      ],
      "name": "addToWhiteList",
      "outputs": [],
      "stateMutability": "nonpayable",
      "type": "function"
    },
    {
      "inputs": [
        {
          "internalType": "address",
          "name": "to",
          "type": "address"
        },
        {
          "internalType": "uint256",
          "name": "tokenId",
          "type": "uint256"
        }
      ],
      "name": "approve",
      "outputs": [],
      "stateMutability": "nonpayable",
      "type": "function"
    },
    {
      "inputs": [
        {
          "internalType": "address",
          "name": "owner",
          "type": "address"
        }
      ],
      "name": "balanceOf",
      "outputs": [
        {
          "internalType": "uint256",
          "name": "",
          "type": "uint256"
        }
      ],
      "stateMutability": "view",
      "type": "function"
    },
    {
      "inputs": [
        {
          "internalType": "uint256",
          "name": "_amount",
          "type": "uint256"
        }
      ],
      "name": "changePrice",
      "outputs": [],
      "stateMutability": "nonpayable",
      "type": "function"
    },
    {
      "inputs": [
        {
          "internalType": "uint256",
          "name": "_tokenId",
          "type": "uint256"
        }
      ],
      "name": "changeSex",
      "outputs": [],
      "stateMutability": "nonpayable",
      "type": "function"
    },
    {
      "inputs": [
        {
          "internalType": "uint256",
          "name": "_amount",
          "type": "uint256"
        }
      ],
      "name": "changeWLPrice",
      "outputs": [],
      "stateMutability": "nonpayable",
      "type": "function"
    },
    {
      "inputs": [
        {
          "internalType": "uint256",
          "name": "tokenId",
          "type": "uint256"
        }
      ],
      "name": "getApproved",
      "outputs": [
        {
          "internalType": "address",
          "name": "",
          "type": "address"
        }
      ],
      "stateMutability": "view",
      "type": "function"
    },
    {
      "inputs": [
        {
          "internalType": "address",
          "name": "",
          "type": "address"
        }
      ],
      "name": "giftlist",
      "outputs": [
        {
          "internalType": "uint256",
          "name": "amount",
          "type": "uint256"
        },
        {
          "internalType": "uint256",
          "name": "fromId",
          "type": "uint256"
        },
        {
          "internalType": "bool",
          "name": "inList",
          "type": "bool"
        },
        {
          "internalType": "bool",
          "name": "claimed",
          "type": "bool"
        }
      ],
      "stateMutability": "view",
      "type": "function"
    },
    {
      "inputs": [],
      "name": "inWhiteList",
      "outputs": [
        {
          "internalType": "bool",
          "name": "",
          "type": "bool"
        }
      ],
      "stateMutability": "view",
      "type": "function"
    },
    {
      "inputs": [
        {
          "internalType": "address",
          "name": "owner",
          "type": "address"
        },
        {
          "internalType": "address",
          "name": "operator",
          "type": "address"
        }
      ],
      "name": "isApprovedForAll",
      "outputs": [
        {
          "internalType": "bool",
          "name": "",
          "type": "bool"
        }
      ],
      "stateMutability": "view",
      "type": "function"
    },
    {
      "inputs": [],
      "name": "isStarted",
      "outputs": [
        {
          "internalType": "bool",
          "name": "",
          "type": "bool"
        }
      ],
      "stateMutability": "view",
      "type": "function"
    },
    {
      "inputs": [
        {
          "internalType": "address",
          "name": "",
          "type": "address"
        }
      ],
      "name": "limitOfMint",
      "outputs": [
        {
          "internalType": "uint256",
          "name": "",
          "type": "uint256"
        }
      ],
      "stateMutability": "view",
      "type": "function"
    },
    {
      "inputs": [],
      "name": "maxAmount",
      "outputs": [
        {
          "internalType": "uint256",
          "name": "",
          "type": "uint256"
        }
      ],
      "stateMutability": "view",
      "type": "function"
    },
    {
      "inputs": [
        {
          "internalType": "uint256",
          "name": "_amount",
          "type": "uint256"
        }
      ],
      "name": "mint",
      "outputs": [],
      "stateMutability": "payable",
      "type": "function"
    },
    {
      "inputs": [],
      "name": "name",
      "outputs": [
        {
          "internalType": "string",
          "name": "",
          "type": "string"
        }
      ],
      "stateMutability": "view",
      "type": "function"
    },
    {
      "inputs": [
        {
          "internalType": "uint256",
          "name": "tokenId",
          "type": "uint256"
        }
      ],
      "name": "nftGender",
      "outputs": [
        {
          "internalType": "bool",
          "name": "",
          "type": "bool"
        }
      ],
      "stateMutability": "view",
      "type": "function"
    },
    {
      "inputs": [],
      "name": "notstop",
      "outputs": [],
      "stateMutability": "nonpayable",
      "type": "function"
    },
    {
      "inputs": [
        {
          "internalType": "uint256",
          "name": "tokenId",
          "type": "uint256"
        }
      ],
      "name": "ownerOf",
      "outputs": [
        {
          "internalType": "address",
          "name": "",
          "type": "address"
        }
      ],
      "stateMutability": "view",
      "type": "function"
    },
    {
      "inputs": [],
      "name": "price",
      "outputs": [
        {
          "internalType": "uint256",
          "name": "",
          "type": "uint256"
        }
      ],
      "stateMutability": "view",
      "type": "function"
    },
    {
      "inputs": [],
      "name": "receiveGift",
      "outputs": [],
      "stateMutability": "nonpayable",
      "type": "function"
    },
    {
      "inputs": [
        {
          "internalType": "string",
          "name": "_baseURI",
          "type": "string"
        },
        {
          "internalType": "string",
          "name": "_baseURIFemale",
          "type": "string"
        }
      ],
      "name": "reveal",
      "outputs": [],
      "stateMutability": "nonpayable",
      "type": "function"
    },
    {
      "inputs": [],
      "name": "revealed",
      "outputs": [
        {
          "internalType": "bool",
          "name": "",
          "type": "bool"
        }
      ],
      "stateMutability": "view",
      "type": "function"
    },
    {
      "inputs": [
        {
          "internalType": "address",
          "name": "from",
          "type": "address"
        },
        {
          "internalType": "address",
          "name": "to",
          "type": "address"
        },
        {
          "internalType": "uint256",
          "name": "tokenId",
          "type": "uint256"
        }
      ],
      "name": "safeTransferFrom",
      "outputs": [],
      "stateMutability": "nonpayable",
      "type": "function"
    },
    {
      "inputs": [
        {
          "internalType": "address",
          "name": "from",
          "type": "address"
        },
        {
          "internalType": "address",
          "name": "to",
          "type": "address"
        },
        {
          "internalType": "uint256",
          "name": "tokenId",
          "type": "uint256"
        },
        {
          "internalType": "bytes",
          "name": "data",
          "type": "bytes"
        }
      ],
      "name": "safeTransferFrom",
      "outputs": [],
      "stateMutability": "nonpayable",
      "type": "function"
    },
    {
      "inputs": [
        {
          "internalType": "address",
          "name": "operator",
          "type": "address"
        },
        {
          "internalType": "bool",
          "name": "approved",
          "type": "bool"
        }
      ],
      "name": "setApprovalForAll",
      "outputs": [],
      "stateMutability": "nonpayable",
      "type": "function"
    },
    {
      "inputs": [
        {
          "internalType": "string",
          "name": "_uri",
          "type": "string"
        }
      ],
      "name": "setBaseURI",
      "outputs": [],
      "stateMutability": "nonpayable",
      "type": "function"
    },
    {
      "inputs": [
        {
          "internalType": "string",
          "name": "_uri",
          "type": "string"
        }
      ],
      "name": "setFemaleURI",
      "outputs": [],
      "stateMutability": "nonpayable",
      "type": "function"
    },
    {
      "inputs": [
        {
          "internalType": "address",
          "name": "_address",
          "type": "address"
        }
      ],
      "name": "setSupportContract",
      "outputs": [],
      "stateMutability": "nonpayable",
      "type": "function"
    },
    {
      "inputs": [],
      "name": "startAt",
      "outputs": [
        {
          "internalType": "uint256",
          "name": "",
          "type": "uint256"
        }
      ],
      "stateMutability": "view",
      "type": "function"
    },
    {
      "inputs": [],
      "name": "startSale",
      "outputs": [],
      "stateMutability": "nonpayable",
      "type": "function"
    },
    {
      "inputs": [],
      "name": "stop",
      "outputs": [],
      "stateMutability": "nonpayable",
      "type": "function"
    },
    {
      "inputs": [],
      "name": "stopped",
      "outputs": [
        {
          "internalType": "bool",
          "name": "",
          "type": "bool"
        }
      ],
      "stateMutability": "view",
      "type": "function"
    },
    {
      "inputs": [
        {
          "internalType": "bytes4",
          "name": "interfaceId",
          "type": "bytes4"
        }
      ],
      "name": "supportsInterface",
      "outputs": [
        {
          "internalType": "bool",
          "name": "",
          "type": "bool"
        }
      ],
      "stateMutability": "view",
      "type": "function"
    },
    {
      "inputs": [],
      "name": "symbol",
      "outputs": [
        {
          "internalType": "string",
          "name": "",
          "type": "string"
        }
      ],
      "stateMutability": "view",
      "type": "function"
    },
    {
      "inputs": [],
      "name": "toWhiteList",
      "outputs": [],
      "stateMutability": "nonpayable",
      "type": "function"
    },
    {
      "inputs": [
        {
          "internalType": "uint256",
          "name": "index",
          "type": "uint256"
        }
      ],
      "name": "tokenByIndex",
      "outputs": [
        {
          "internalType": "uint256",
          "name": "",
          "type": "uint256"
        }
      ],
      "stateMutability": "view",
      "type": "function"
    },
    {
      "inputs": [
        {
          "internalType": "uint256",
          "name": "",
          "type": "uint256"
        }
      ],
      "name": "tokenFemale",
      "outputs": [
        {
          "internalType": "bool",
          "name": "",
          "type": "bool"
        }
      ],
      "stateMutability": "view",
      "type": "function"
    },
    {
      "inputs": [],
      "name": "tokenID",
      "outputs": [
        {
          "internalType": "uint256",
          "name": "",
          "type": "uint256"
        }
      ],
      "stateMutability": "view",
      "type": "function"
    },
    {
      "inputs": [
        {
          "internalType": "address",
          "name": "owner",
          "type": "address"
        },
        {
          "internalType": "uint256",
          "name": "index",
          "type": "uint256"
        }
      ],
      "name": "tokenOfOwnerByIndex",
      "outputs": [
        {
          "internalType": "uint256",
          "name": "",
          "type": "uint256"
        }
      ],
      "stateMutability": "view",
      "type": "function"
    },
    {
      "inputs": [
        {
          "internalType": "uint256",
          "name": "tokenId",
          "type": "uint256"
        }
      ],
      "name": "tokenURI",
      "outputs": [
        {
          "internalType": "string",
          "name": "",
          "type": "string"
        }
      ],
      "stateMutability": "view",
      "type": "function"
    },
    {
      "inputs": [
        {
          "internalType": "address",
          "name": "",
          "type": "address"
        },
        {
          "internalType": "uint256",
          "name": "",
          "type": "uint256"
        }
      ],
      "name": "tokensIdToOwner",
      "outputs": [
        {
          "internalType": "uint256",
          "name": "",
          "type": "uint256"
        }
      ],
      "stateMutability": "view",
      "type": "function"
    },
    {
      "inputs": [],
      "name": "totalSupply",
      "outputs": [
        {
          "internalType": "uint256",
          "name": "",
          "type": "uint256"
        }
      ],
      "stateMutability": "view",
      "type": "function"
    },
    {
      "inputs": [
        {
          "internalType": "address",
          "name": "from",
          "type": "address"
        },
        {
          "internalType": "address",
          "name": "to",
          "type": "address"
        },
        {
          "internalType": "uint256",
          "name": "tokenId",
          "type": "uint256"
        }
      ],
      "name": "transferFrom",
      "outputs": [],
      "stateMutability": "nonpayable",
      "type": "function"
    },
    {
      "inputs": [
        {
          "internalType": "uint256",
          "name": "_amount",
          "type": "uint256"
        }
      ],
      "name": "whiteListMint",
      "outputs": [],
      "stateMutability": "payable",
      "type": "function"
    },
    {
      "inputs": [
        {
          "internalType": "address",
          "name": "",
          "type": "address"
        }
      ],
      "name": "whitelist",
      "outputs": [
        {
          "internalType": "bool",
          "name": "",
          "type": "bool"
        }
      ],
      "stateMutability": "view",
      "type": "function"
    },
    {
      "inputs": [],
      "name": "withdraw_1",
      "outputs": [],
      "stateMutability": "nonpayable",
      "type": "function"
    },
    {
      "inputs": [],
      "name": "withdraw_2",
      "outputs": [],
      "stateMutability": "nonpayable",
      "type": "function"
    },
    {
      "inputs": [],
      "name": "wlPrice",
      "outputs": [
        {
          "internalType": "uint256",
          "name": "",
          "type": "uint256"
        }
      ],
      "stateMutability": "view",
      "type": "function"
    }
  ],
  "bytecode": "0x60a06040526127116080908152506001600d5567011c37937e080000600e5566f8b0a10e470000600f553480156200003657600080fd5b506040518060400160405280600d81526020017f54657374546f6b656e42424220000000000000000000000000000000000000008152506040518060400160405280600481526020017f47424241000000000000000000000000000000000000000000000000000000008152508160009080519060200190620000bb92919062000173565b508060019080519060200190620000d492919062000173565b50505033601360006101000a81548173ffffffffffffffffffffffffffffffffffffffff021916908373ffffffffffffffffffffffffffffffffffffffff160217905550734e6661d8cd3d3657d917561c4be15821bde6caa1601460006101000a81548173ffffffffffffffffffffffffffffffffffffffff021916908373ffffffffffffffffffffffffffffffffffffffff16021790555062000288565b828054620001819062000252565b90600052602060002090601f016020900481019282620001a55760008555620001f1565b82601f10620001c057805160ff1916838001178555620001f1565b82800160010185558215620001f1579182015b82811115620001f0578251825591602001919060010190620001d3565b5b50905062000200919062000204565b5090565b5b808211156200021f57600081600090555060010162000205565b5090565b7f4e487b7100000000000000000000000000000000000000000000000000000000600052602260045260246000fd5b600060028204905060018216806200026b57607f821691505b6020821081141562000282576200028162000223565b5b50919050565b60805161564a620002b2600039600081816116da01528181611a050152612044015261564a6000f3fe6080604052600436106102c95760003560e01c806375f12b2111610175578063b66a0e5d116100dc578063c744656511610095578063cf5157bf1161006f578063cf5157bf14610ac3578063dfdfc08414610aee578063e03af45414610b17578063e985e9c514610b2e576102c9565b8063c744656514610a30578063c7f8d01a14610a5b578063c87b56dd14610a86576102c9565b8063b66a0e5d14610945578063b88d4fde1461095c578063b93854c714610985578063bb3ee79d146109c2578063bb9c00e2146109d9578063c035340c14610a19576102c9565b8063a035b1fe1161012e578063a035b1fe1461086a578063a0712d6814610895578063a1bb568e146108b1578063a22cb465146108c8578063a2b40d19146108f1578063a5c42ef11461091a576102c9565b806375f12b21146107345780638b1a79fe1461075f5780638ddebef21461078857806395d89b41146107c55780639b19251a146107f05780639c52d0a91461082d576102c9565b806347ee03941161023457806355f804b3116101ed57806361318052116101c757806361318052146106685780636352211e14610691578063661d4e45146106ce57806370a08231146106f7576102c9565b806355f804b3146105eb5780635ba1b2c7146106145780635f48f3931461063d576102c9565b806347ee0394146104c95780634cb1fa08146104f25780634f6ccce71461052f578063506213171461056c5780635183022714610595578063544736e6146105c0576102c9565b806318160ddd1161028657806318160ddd146103cf5780631e17ee05146103fa57806323b872dd146104235780632f745c591461044c5780633083a4f91461048957806342842e0e146104a0576102c9565b806301ffc9a7146102ce57806302e001ef1461030b57806306fdde031461032757806307da68f514610352578063081812fc14610369578063095ea7b3146103a6575b600080fd5b3480156102da57600080fd5b506102f560048036038101906102f09190613e27565b610b6b565b6040516103029190613e6f565b60405180910390f35b61032560048036038101906103209190613ec0565b610b7d565b005b34801561033357600080fd5b5061033c610e5a565b6040516103499190613f86565b60405180910390f35b34801561035e57600080fd5b50610367610eec565b005b34801561037557600080fd5b50610390600480360381019061038b9190613ec0565b610f99565b60405161039d9190613fe9565b60405180910390f35b3480156103b257600080fd5b506103cd60048036038101906103c89190614030565b610fdf565b005b3480156103db57600080fd5b506103e46110f7565b6040516103f1919061407f565b60405180910390f35b34801561040657600080fd5b50610421600480360381019061041c919061409a565b611104565b005b34801561042f57600080fd5b5061044a600480360381019061044591906140c7565b611299565b005b34801561045857600080fd5b50610473600480360381019061046e9190614030565b6112f9565b604051610480919061407f565b60405180910390f35b34801561049557600080fd5b5061049e61139e565b005b3480156104ac57600080fd5b506104c760048036038101906104c291906140c7565b61149b565b005b3480156104d557600080fd5b506104f060048036038101906104eb919061409a565b6114bb565b005b3480156104fe57600080fd5b5061051960048036038101906105149190614030565b6115a6565b604051610526919061407f565b60405180910390f35b34801561053b57600080fd5b5061055660048036038101906105519190613ec0565b6115d7565b604051610563919061407f565b60405180910390f35b34801561057857600080fd5b50610593600480360381019061058e9190614030565b611648565b005b3480156105a157600080fd5b506105aa61184f565b6040516105b79190613e6f565b60405180910390f35b3480156105cc57600080fd5b506105d5611860565b6040516105e29190613e6f565b60405180910390f35b3480156105f757600080fd5b50610612600480360381019061060d919061424f565b61187d565b005b34801561062057600080fd5b5061063b60048036038101906106369190614298565b611927565b005b34801561064957600080fd5b50610652611a03565b60405161065f919061407f565b60405180910390f35b34801561067457600080fd5b5061068f600480360381019061068a919061409a565b611a27565b005b34801561069d57600080fd5b506106b860048036038101906106b39190613ec0565b611afb565b6040516106c59190613fe9565b60405180910390f35b3480156106da57600080fd5b506106f560048036038101906106f09190613ec0565b611bad565b005b34801561070357600080fd5b5061071e6004803603810190610719919061409a565b611c72565b60405161072b919061407f565b60405180910390f35b34801561074057600080fd5b50610749611d2a565b6040516107569190613e6f565b60405180910390f35b34801561076b57600080fd5b5061078660048036038101906107819190613ec0565b611d3d565b005b34801561079457600080fd5b506107af60048036038101906107aa9190613ec0565b611dd7565b6040516107bc9190613e6f565b60405180910390f35b3480156107d157600080fd5b506107da611df7565b6040516107e79190613f86565b60405180910390f35b3480156107fc57600080fd5b506108176004803603810190610812919061409a565b611e89565b6040516108249190613e6f565b60405180910390f35b34801561083957600080fd5b50610854600480360381019061084f9190613ec0565b611ea9565b6040516108619190613e6f565b60405180910390f35b34801561087657600080fd5b5061087f611f1b565b60405161088c919061407f565b60405180910390f35b6108af60048036038101906108aa9190613ec0565b611f21565b005b3480156108bd57600080fd5b506108c66121a8565b005b3480156108d457600080fd5b506108ef60048036038101906108ea919061433c565b6122e9565b005b3480156108fd57600080fd5b5061091860048036038101906109139190613ec0565b6122ff565b005b34801561092657600080fd5b5061092f612399565b60405161093c919061407f565b60405180910390f35b34801561095157600080fd5b5061095a61239f565b005b34801561096857600080fd5b50610983600480360381019061097e919061441d565b612438565b005b34801561099157600080fd5b506109ac60048036038101906109a7919061409a565b61249a565b6040516109b9919061407f565b60405180910390f35b3480156109ce57600080fd5b506109d76124b2565b005b3480156109e557600080fd5b50610a0060048036038101906109fb919061409a565b612753565b604051610a1094939291906144a0565b60405180910390f35b348015610a2557600080fd5b50610a2e61279d565b005b348015610a3c57600080fd5b50610a4561289a565b604051610a52919061407f565b60405180910390f35b348015610a6757600080fd5b50610a706128a0565b604051610a7d919061407f565b60405180910390f35b348015610a9257600080fd5b50610aad6004803603810190610aa89190613ec0565b6128a6565b604051610aba9190613f86565b60405180910390f35b348015610acf57600080fd5b50610ad86129ad565b604051610ae59190613e6f565b60405180910390f35b348015610afa57600080fd5b50610b156004803603810190610b10919061424f565b612a01565b005b348015610b2357600080fd5b50610b2c612aab565b005b348015610b3a57600080fd5b50610b556004803603810190610b5091906144e5565b612b58565b604051610b629190613e6f565b60405180910390f35b6000610b7682612bec565b9050919050565b601560149054906101000a900460ff1615610bcd576040517f08c379a0000000000000000000000000000000000000000000000000000000008152600401610bc490614571565b60405180910390fd5b60008111610c10576040517f08c379a0000000000000000000000000000000000000000000000000000000008152600401610c07906145dd565b60405180910390fd5b6012544211610c54576040517f08c379a0000000000000000000000000000000000000000000000000000000008152600401610c4b90614649565b60405180910390fd5b6002601960003373ffffffffffffffffffffffffffffffffffffffff1673ffffffffffffffffffffffffffffffffffffffff168152602001908152602001600020541115610cd7576040517f08c379a0000000000000000000000000000000000000000000000000000000008152600401610cce906146b5565b60405180910390fd5b601660003373ffffffffffffffffffffffffffffffffffffffff1673ffffffffffffffffffffffffffffffffffffffff16815260200190815260200160002060009054906101000a900460ff16610d63576040517f08c379a0000000000000000000000000000000000000000000000000000000008152600401610d5a90614721565b60405180910390fd5b80601960003373ffffffffffffffffffffffffffffffffffffffff1673ffffffffffffffffffffffffffffffffffffffff1681526020019081526020016000206000828254610db29190614770565b92505081905550606434610dc691906147f5565b60118190555060115434610dda9190614826565b6010819055506001811415610e1257610df533600d54612c66565b600d6000815480929190610e089061485a565b9190505550610e57565b60005b6002811015610e5557610e2a33600d54612c66565b600d6000815480929190610e3d9061485a565b91905055508080610e4d9061485a565b915050610e15565b505b50565b606060008054610e69906148d2565b80601f0160208091040260200160405190810160405280929190818152602001828054610e95906148d2565b8015610ee25780601f10610eb757610100808354040283529160200191610ee2565b820191906000526020600020905b815481529060010190602001808311610ec557829003601f168201915b5050505050905090565b601360009054906101000a900473ffffffffffffffffffffffffffffffffffffffff1673ffffffffffffffffffffffffffffffffffffffff163373ffffffffffffffffffffffffffffffffffffffff1614610f7c576040517f08c379a0000000000000000000000000000000000000000000000000000000008152600401610f7390614950565b60405180910390fd5b6001601560146101000a81548160ff021916908315150217905550565b6000610fa482612e40565b6004600083815260200190815260200160002060009054906101000a900473ffffffffffffffffffffffffffffffffffffffff169050919050565b6000610fea82611afb565b90508073ffffffffffffffffffffffffffffffffffffffff168373ffffffffffffffffffffffffffffffffffffffff16141561105b576040517f08c379a0000000000000000000000000000000000000000000000000000000008152600401611052906149e2565b60405180910390fd5b8073ffffffffffffffffffffffffffffffffffffffff1661107a612e8b565b73ffffffffffffffffffffffffffffffffffffffff1614806110a957506110a8816110a3612e8b565b612b58565b5b6110e8576040517f08c379a00000000000000000000000000000000000000000000000000000000081526004016110df90614a74565b60405180910390fd5b6110f28383612e93565b505050565b6000600980549050905090565b601360009054906101000a900473ffffffffffffffffffffffffffffffffffffffff1673ffffffffffffffffffffffffffffffffffffffff163373ffffffffffffffffffffffffffffffffffffffff1614611194576040517f08c379a000000000000000000000000000000000000000000000000000000000815260040161118b90614950565b60405180910390fd5b6000601660008373ffffffffffffffffffffffffffffffffffffffff1673ffffffffffffffffffffffffffffffffffffffff16815260200190815260200160002060006101000a81548160ff021916908315150217905550601760008273ffffffffffffffffffffffffffffffffffffffff1673ffffffffffffffffffffffffffffffffffffffff16815260200190815260200160002060009054906101000a900460ff16611296576001601760008373ffffffffffffffffffffffffffffffffffffffff1673ffffffffffffffffffffffffffffffffffffffff16815260200190815260200160002060006101000a81548160ff0219169083151502179055505b50565b6112aa6112a4612e8b565b82612f4c565b6112e9576040517f08c379a00000000000000000000000000000000000000000000000000000000081526004016112e090614b06565b60405180910390fd5b6112f4838383612fe1565b505050565b600061130483611c72565b8210611345576040517f08c379a000000000000000000000000000000000000000000000000000000000815260040161133c90614b98565b60405180910390fd5b600760008473ffffffffffffffffffffffffffffffffffffffff1673ffffffffffffffffffffffffffffffffffffffff168152602001908152602001600020600083815260200190815260200160002054905092915050565b601460009054906101000a900473ffffffffffffffffffffffffffffffffffffffff1673ffffffffffffffffffffffffffffffffffffffff163373ffffffffffffffffffffffffffffffffffffffff161461142e576040517f08c379a000000000000000000000000000000000000000000000000000000000815260040161142590614c04565b60405180910390fd5b601460009054906101000a900473ffffffffffffffffffffffffffffffffffffffff1673ffffffffffffffffffffffffffffffffffffffff166108fc6011549081150290604051600060405180830381858888f19350505050158015611498573d6000803e3d6000fd5b50565b6114b683838360405180602001604052806000815250612438565b505050565b601360009054906101000a900473ffffffffffffffffffffffffffffffffffffffff1673ffffffffffffffffffffffffffffffffffffffff163373ffffffffffffffffffffffffffffffffffffffff161461154b576040517f08c379a000000000000000000000000000000000000000000000000000000000815260040161154290614950565b60405180910390fd5b6001601660008373ffffffffffffffffffffffffffffffffffffffff1673ffffffffffffffffffffffffffffffffffffffff16815260200190815260200160002060006101000a81548160ff02191690831515021790555050565b601b60205281600052604060002081815481106115c257600080fd5b90600052602060002001600091509150505481565b60006115e16110f7565b8210611622576040517f08c379a000000000000000000000000000000000000000000000000000000000815260040161161990614c96565b60405180910390fd5b6009828154811061163657611635614cb6565b5b90600052602060002001549050919050565b601360009054906101000a900473ffffffffffffffffffffffffffffffffffffffff1673ffffffffffffffffffffffffffffffffffffffff163373ffffffffffffffffffffffffffffffffffffffff16146116d8576040517f08c379a00000000000000000000000000000000000000000000000000000000081526004016116cf90614950565b60405180910390fd5b7f000000000000000000000000000000000000000000000000000000000000000081600d546117079190614770565b10611747576040517f08c379a000000000000000000000000000000000000000000000000000000000815260040161173e90614d31565b60405180910390fd5b80601860008473ffffffffffffffffffffffffffffffffffffffff1673ffffffffffffffffffffffffffffffffffffffff16815260200190815260200160002060000181905550600d54601860008473ffffffffffffffffffffffffffffffffffffffff1673ffffffffffffffffffffffffffffffffffffffff168152602001908152602001600020600101819055506001601860008473ffffffffffffffffffffffffffffffffffffffff1673ffffffffffffffffffffffffffffffffffffffff16815260200190815260200160002060020160006101000a81548160ff02191690831515021790555080600d60008282546118449190614770565b925050819055505050565b60158054906101000a900460ff1681565b6000806012541115611875576001905061187a565b600090505b90565b601360009054906101000a900473ffffffffffffffffffffffffffffffffffffffff1673ffffffffffffffffffffffffffffffffffffffff163373ffffffffffffffffffffffffffffffffffffffff161461190d576040517f08c379a000000000000000000000000000000000000000000000000000000000815260040161190490614950565b60405180910390fd5b80600b9080519060200190611923929190613d18565b5050565b601360009054906101000a900473ffffffffffffffffffffffffffffffffffffffff1673ffffffffffffffffffffffffffffffffffffffff163373ffffffffffffffffffffffffffffffffffffffff16146119b7576040517f08c379a00000000000000000000000000000000000000000000000000000000081526004016119ae90614950565b60405180910390fd5b60016015806101000a81548160ff02191690831515021790555081600b90805190602001906119e7929190613d18565b5080600c90805190602001906119fe929190613d18565b505050565b7f000000000000000000000000000000000000000000000000000000000000000081565b601360009054906101000a900473ffffffffffffffffffffffffffffffffffffffff1673ffffffffffffffffffffffffffffffffffffffff163373ffffffffffffffffffffffffffffffffffffffff1614611ab7576040517f08c379a0000000000000000000000000000000000000000000000000000000008152600401611aae90614950565b60405180910390fd5b80601560006101000a81548173ffffffffffffffffffffffffffffffffffffffff021916908373ffffffffffffffffffffffffffffffffffffffff16021790555050565b6000806002600084815260200190815260200160002060009054906101000a900473ffffffffffffffffffffffffffffffffffffffff169050600073ffffffffffffffffffffffffffffffffffffffff168173ffffffffffffffffffffffffffffffffffffffff161415611ba4576040517f08c379a0000000000000000000000000000000000000000000000000000000008152600401611b9b90614d9d565b60405180910390fd5b80915050919050565b3373ffffffffffffffffffffffffffffffffffffffff16611bcd82611afb565b73ffffffffffffffffffffffffffffffffffffffff1614611c23576040517f08c379a0000000000000000000000000000000000000000000000000000000008152600401611c1a90614e09565b60405180910390fd5b601a600082815260200190815260200160002060009054906101000a900460ff1615601a600083815260200190815260200160002060006101000a81548160ff02191690831515021790555050565b60008073ffffffffffffffffffffffffffffffffffffffff168273ffffffffffffffffffffffffffffffffffffffff161415611ce3576040517f08c379a0000000000000000000000000000000000000000000000000000000008152600401611cda90614e9b565b60405180910390fd5b600360008373ffffffffffffffffffffffffffffffffffffffff1673ffffffffffffffffffffffffffffffffffffffff168152602001908152602001600020549050919050565b601560149054906101000a900460ff1681565b601360009054906101000a900473ffffffffffffffffffffffffffffffffffffffff1673ffffffffffffffffffffffffffffffffffffffff163373ffffffffffffffffffffffffffffffffffffffff1614611dcd576040517f08c379a0000000000000000000000000000000000000000000000000000000008152600401611dc490614950565b60405180910390fd5b80600f8190555050565b601a6020528060005260406000206000915054906101000a900460ff1681565b606060018054611e06906148d2565b80601f0160208091040260200160405190810160405280929190818152602001828054611e32906148d2565b8015611e7f5780601f10611e5457610100808354040283529160200191611e7f565b820191906000526020600020905b815481529060010190602001808311611e6257829003601f168201915b5050505050905090565b60166020528060005260406000206000915054906101000a900460ff1681565b6000611eb482613248565b611ef3576040517f08c379a0000000000000000000000000000000000000000000000000000000008152600401611eea90614f2d565b60405180910390fd5b601a600083815260200190815260200160002060009054906101000a900460ff169050919050565b600e5481565b601560149054906101000a900460ff1615611f71576040517f08c379a0000000000000000000000000000000000000000000000000000000008152600401611f6890614571565b60405180910390fd5b60008111611fb4576040517f08c379a0000000000000000000000000000000000000000000000000000000008152600401611fab906145dd565b60405180910390fd5b600281601960003373ffffffffffffffffffffffffffffffffffffffff1673ffffffffffffffffffffffffffffffffffffffff168152602001908152602001600020546120019190614770565b1115612042576040517f08c379a0000000000000000000000000000000000000000000000000000000008152600401612039906146b5565b60405180910390fd5b7f000000000000000000000000000000000000000000000000000000000000000081600d546120719190614770565b106120b1576040517f08c379a00000000000000000000000000000000000000000000000000000000081526004016120a890614d31565b60405180910390fd5b80601960003373ffffffffffffffffffffffffffffffffffffffff1673ffffffffffffffffffffffffffffffffffffffff16815260200190815260200160002060008282546121009190614770565b9250508190555060643461211491906147f5565b601181905550601154346121289190614826565b60108190555060018114156121605761214333600d54612c66565b600d60008154809291906121569061485a565b91905055506121a5565b60005b60028110156121a35761217833600d54612c66565b600d600081548092919061218b9061485a565b9190505550808061219b9061485a565b915050612163565b505b50565b601760003273ffffffffffffffffffffffffffffffffffffffff1673ffffffffffffffffffffffffffffffffffffffff16815260200190815260200160002060009054906101000a900460ff16156121ff57600080fd5b601560009054906101000a900473ffffffffffffffffffffffffffffffffffffffff1673ffffffffffffffffffffffffffffffffffffffff163373ffffffffffffffffffffffffffffffffffffffff161461228f576040517f08c379a000000000000000000000000000000000000000000000000000000000815260040161228690614f99565b60405180910390fd5b6001601660003273ffffffffffffffffffffffffffffffffffffffff1673ffffffffffffffffffffffffffffffffffffffff16815260200190815260200160002060006101000a81548160ff021916908315150217905550565b6122fb6122f4612e8b565b83836132b4565b5050565b601360009054906101000a900473ffffffffffffffffffffffffffffffffffffffff1673ffffffffffffffffffffffffffffffffffffffff163373ffffffffffffffffffffffffffffffffffffffff161461238f576040517f08c379a000000000000000000000000000000000000000000000000000000000815260040161238690614950565b60405180910390fd5b80600e8190555050565b600d5481565b601360009054906101000a900473ffffffffffffffffffffffffffffffffffffffff1673ffffffffffffffffffffffffffffffffffffffff163373ffffffffffffffffffffffffffffffffffffffff161461242f576040517f08c379a000000000000000000000000000000000000000000000000000000000815260040161242690614950565b60405180910390fd5b42601281905550565b612449612443612e8b565b83612f4c565b612488576040517f08c379a000000000000000000000000000000000000000000000000000000000815260040161247f90614b06565b60405180910390fd5b61249484848484613421565b50505050565b60196020528060005260406000206000915090505481565b601560149054906101000a900460ff1615612502576040517f08c379a00000000000000000000000000000000000000000000000000000000081526004016124f990614571565b60405180910390fd5b6012544211612546576040517f08c379a000000000000000000000000000000000000000000000000000000000815260040161253d90614649565b60405180910390fd5b60011515601860003373ffffffffffffffffffffffffffffffffffffffff1673ffffffffffffffffffffffffffffffffffffffff16815260200190815260200160002060020160009054906101000a900460ff1615151480156125f65750601860003373ffffffffffffffffffffffffffffffffffffffff1673ffffffffffffffffffffffffffffffffffffffff16815260200190815260200160002060020160019054906101000a900460ff16155b612635576040517f08c379a000000000000000000000000000000000000000000000000000000000815260040161262c9061502b565b60405180910390fd5b6001601860003373ffffffffffffffffffffffffffffffffffffffff1673ffffffffffffffffffffffffffffffffffffffff16815260200190815260200160002060020160016101000a81548160ff0219169083151502179055506000601860003373ffffffffffffffffffffffffffffffffffffffff1673ffffffffffffffffffffffffffffffffffffffff16815260200190815260200160002060010154905060005b601860003373ffffffffffffffffffffffffffffffffffffffff1673ffffffffffffffffffffffffffffffffffffffff1681526020019081526020016000206000015481101561274f5761272e3383612c66565b81806127399061485a565b92505080806127479061485a565b9150506126da565b5050565b60186020528060005260406000206000915090508060000154908060010154908060020160009054906101000a900460ff16908060020160019054906101000a900460ff16905084565b601360009054906101000a900473ffffffffffffffffffffffffffffffffffffffff1673ffffffffffffffffffffffffffffffffffffffff163373ffffffffffffffffffffffffffffffffffffffff161461282d576040517f08c379a000000000000000000000000000000000000000000000000000000000815260040161282490614950565b60405180910390fd5b601360009054906101000a900473ffffffffffffffffffffffffffffffffffffffff1673ffffffffffffffffffffffffffffffffffffffff166108fc6010549081150290604051600060405180830381858888f19350505050158015612897573d6000803e3d6000fd5b50565b60125481565b600f5481565b60606128b182613248565b6128f0576040517f08c379a00000000000000000000000000000000000000000000000000000000081526004016128e790614f2d565b60405180910390fd5b60158054906101000a900460ff16612922576040518060800160405280604181526020016155d46041913990506129a8565b601a600083815260200190815260200160002060009054906101000a900460ff161561297a57600c6129538361347d565b604051602001612964929190615167565b60405160208183030381529060405290506129a8565b600b6129858361347d565b604051602001612996929190615167565b60405160208183030381529060405290505b919050565b6000601660003373ffffffffffffffffffffffffffffffffffffffff1673ffffffffffffffffffffffffffffffffffffffff16815260200190815260200160002060009054906101000a900460ff16905090565b601360009054906101000a900473ffffffffffffffffffffffffffffffffffffffff1673ffffffffffffffffffffffffffffffffffffffff163373ffffffffffffffffffffffffffffffffffffffff1614612a91576040517f08c379a0000000000000000000000000000000000000000000000000000000008152600401612a8890614950565b60405180910390fd5b80600c9080519060200190612aa7929190613d18565b5050565b601360009054906101000a900473ffffffffffffffffffffffffffffffffffffffff1673ffffffffffffffffffffffffffffffffffffffff163373ffffffffffffffffffffffffffffffffffffffff1614612b3b576040517f08c379a0000000000000000000000000000000000000000000000000000000008152600401612b3290614950565b60405180910390fd5b6000601560146101000a81548160ff021916908315150217905550565b6000600560008473ffffffffffffffffffffffffffffffffffffffff1673ffffffffffffffffffffffffffffffffffffffff16815260200190815260200160002060008373ffffffffffffffffffffffffffffffffffffffff1673ffffffffffffffffffffffffffffffffffffffff16815260200190815260200160002060009054906101000a900460ff16905092915050565b60007f780e9d63000000000000000000000000000000000000000000000000000000007bffffffffffffffffffffffffffffffffffffffffffffffffffffffff1916827bffffffffffffffffffffffffffffffffffffffffffffffffffffffff19161480612c5f5750612c5e826135de565b5b9050919050565b600073ffffffffffffffffffffffffffffffffffffffff168273ffffffffffffffffffffffffffffffffffffffff161415612cd6576040517f08c379a0000000000000000000000000000000000000000000000000000000008152600401612ccd906151e2565b60405180910390fd5b612cdf81613248565b15612d1f576040517f08c379a0000000000000000000000000000000000000000000000000000000008152600401612d169061524e565b60405180910390fd5b612d2b600083836136c0565b6001600360008473ffffffffffffffffffffffffffffffffffffffff1673ffffffffffffffffffffffffffffffffffffffff1681526020019081526020016000206000828254612d7b9190614770565b92505081905550816002600083815260200190815260200160002060006101000a81548173ffffffffffffffffffffffffffffffffffffffff021916908373ffffffffffffffffffffffffffffffffffffffff160217905550808273ffffffffffffffffffffffffffffffffffffffff16600073ffffffffffffffffffffffffffffffffffffffff167fddf252ad1be2c89b69c2b068fc378daa952ba7f163c4a11628f55a4df523b3ef60405160405180910390a4612e3c600083836136d0565b5050565b612e4981613248565b612e88576040517f08c379a0000000000000000000000000000000000000000000000000000000008152600401612e7f90614d9d565b60405180910390fd5b50565b600033905090565b816004600083815260200190815260200160002060006101000a81548173ffffffffffffffffffffffffffffffffffffffff021916908373ffffffffffffffffffffffffffffffffffffffff160217905550808273ffffffffffffffffffffffffffffffffffffffff16612f0683611afb565b73ffffffffffffffffffffffffffffffffffffffff167f8c5be1e5ebec7d5bd14f71427d1e84f3dd0314c0f7b2291e5b200ac8c7c3b92560405160405180910390a45050565b600080612f5883611afb565b90508073ffffffffffffffffffffffffffffffffffffffff168473ffffffffffffffffffffffffffffffffffffffff161480612f9a5750612f998185612b58565b5b80612fd857508373ffffffffffffffffffffffffffffffffffffffff16612fc084610f99565b73ffffffffffffffffffffffffffffffffffffffff16145b91505092915050565b8273ffffffffffffffffffffffffffffffffffffffff1661300182611afb565b73ffffffffffffffffffffffffffffffffffffffff1614613057576040517f08c379a000000000000000000000000000000000000000000000000000000000815260040161304e906152e0565b60405180910390fd5b600073ffffffffffffffffffffffffffffffffffffffff168273ffffffffffffffffffffffffffffffffffffffff1614156130c7576040517f08c379a00000000000000000000000000000000000000000000000000000000081526004016130be90615372565b60405180910390fd5b6130d28383836136c0565b6130dd600082612e93565b6001600360008573ffffffffffffffffffffffffffffffffffffffff1673ffffffffffffffffffffffffffffffffffffffff168152602001908152602001600020600082825461312d9190614826565b925050819055506001600360008473ffffffffffffffffffffffffffffffffffffffff1673ffffffffffffffffffffffffffffffffffffffff16815260200190815260200160002060008282546131849190614770565b92505081905550816002600083815260200190815260200160002060006101000a81548173ffffffffffffffffffffffffffffffffffffffff021916908373ffffffffffffffffffffffffffffffffffffffff160217905550808273ffffffffffffffffffffffffffffffffffffffff168473ffffffffffffffffffffffffffffffffffffffff167fddf252ad1be2c89b69c2b068fc378daa952ba7f163c4a11628f55a4df523b3ef60405160405180910390a46132438383836136d0565b505050565b60008073ffffffffffffffffffffffffffffffffffffffff166002600084815260200190815260200160002060009054906101000a900473ffffffffffffffffffffffffffffffffffffffff1673ffffffffffffffffffffffffffffffffffffffff1614159050919050565b8173ffffffffffffffffffffffffffffffffffffffff168373ffffffffffffffffffffffffffffffffffffffff161415613323576040517f08c379a000000000000000000000000000000000000000000000000000000000815260040161331a906153de565b60405180910390fd5b80600560008573ffffffffffffffffffffffffffffffffffffffff1673ffffffffffffffffffffffffffffffffffffffff16815260200190815260200160002060008473ffffffffffffffffffffffffffffffffffffffff1673ffffffffffffffffffffffffffffffffffffffff16815260200190815260200160002060006101000a81548160ff0219169083151502179055508173ffffffffffffffffffffffffffffffffffffffff168373ffffffffffffffffffffffffffffffffffffffff167f17307eab39ab6107e8899845ad3d59bd9653f200f220920489ca2b5937696c31836040516134149190613e6f565b60405180910390a3505050565b61342c848484612fe1565b613438848484846136d5565b613477576040517f08c379a000000000000000000000000000000000000000000000000000000000815260040161346e90615470565b60405180910390fd5b50505050565b606060008214156134c5576040518060400160405280600181526020017f300000000000000000000000000000000000000000000000000000000000000081525090506135d9565b600082905060005b600082146134f75780806134e09061485a565b915050600a826134f091906147f5565b91506134cd565b60008167ffffffffffffffff81111561351357613512614124565b5b6040519080825280601f01601f1916602001820160405280156135455781602001600182028036833780820191505090505b5090505b600085146135d25760018261355e9190614826565b9150600a8561356d9190615490565b60306135799190614770565b60f81b81838151811061358f5761358e614cb6565b5b60200101907effffffffffffffffffffffffffffffffffffffffffffffffffffffffffffff1916908160001a905350600a856135cb91906147f5565b9450613549565b8093505050505b919050565b60007f80ac58cd000000000000000000000000000000000000000000000000000000007bffffffffffffffffffffffffffffffffffffffffffffffffffffffff1916827bffffffffffffffffffffffffffffffffffffffffffffffffffffffff191614806136a957507f5b5e139f000000000000000000000000000000000000000000000000000000007bffffffffffffffffffffffffffffffffffffffffffffffffffffffff1916827bffffffffffffffffffffffffffffffffffffffffffffffffffffffff1916145b806136b957506136b88261386c565b5b9050919050565b6136cb8383836138d6565b505050565b505050565b60006136f68473ffffffffffffffffffffffffffffffffffffffff166139ea565b1561385f578373ffffffffffffffffffffffffffffffffffffffff1663150b7a0261371f612e8b565b8786866040518563ffffffff1660e01b81526004016137419493929190615516565b602060405180830381600087803b15801561375b57600080fd5b505af192505050801561378c57506040513d601f19601f820116820180604052508101906137899190615577565b60015b61380f573d80600081146137bc576040519150601f19603f3d011682016040523d82523d6000602084013e6137c1565b606091505b50600081511415613807576040517f08c379a00000000000000000000000000000000000000000000000000000000081526004016137fe90615470565b60405180910390fd5b805181602001fd5b63150b7a0260e01b7bffffffffffffffffffffffffffffffffffffffffffffffffffffffff1916817bffffffffffffffffffffffffffffffffffffffffffffffffffffffff191614915050613864565b600190505b949350505050565b60007f01ffc9a7000000000000000000000000000000000000000000000000000000007bffffffffffffffffffffffffffffffffffffffffffffffffffffffff1916827bffffffffffffffffffffffffffffffffffffffffffffffffffffffff1916149050919050565b6138e1838383613a0d565b600073ffffffffffffffffffffffffffffffffffffffff168373ffffffffffffffffffffffffffffffffffffffff1614156139245761391f81613a12565b613963565b8173ffffffffffffffffffffffffffffffffffffffff168373ffffffffffffffffffffffffffffffffffffffff1614613962576139618382613a5b565b5b5b600073ffffffffffffffffffffffffffffffffffffffff168273ffffffffffffffffffffffffffffffffffffffff1614156139a6576139a181613bc8565b6139e5565b8273ffffffffffffffffffffffffffffffffffffffff168273ffffffffffffffffffffffffffffffffffffffff16146139e4576139e38282613c99565b5b5b505050565b6000808273ffffffffffffffffffffffffffffffffffffffff163b119050919050565b505050565b600980549050600a600083815260200190815260200160002081905550600981908060018154018082558091505060019003906000526020600020016000909190919091505550565b60006001613a6884611c72565b613a729190614826565b9050600060086000848152602001908152602001600020549050818114613b57576000600760008673ffffffffffffffffffffffffffffffffffffffff1673ffffffffffffffffffffffffffffffffffffffff168152602001908152602001600020600084815260200190815260200160002054905080600760008773ffffffffffffffffffffffffffffffffffffffff1673ffffffffffffffffffffffffffffffffffffffff168152602001908152602001600020600084815260200190815260200160002081905550816008600083815260200190815260200160002081905550505b6008600084815260200190815260200160002060009055600760008573ffffffffffffffffffffffffffffffffffffffff1673ffffffffffffffffffffffffffffffffffffffff16815260200190815260200160002060008381526020019081526020016000206000905550505050565b60006001600980549050613bdc9190614826565b90506000600a6000848152602001908152602001600020549050600060098381548110613c0c57613c0b614cb6565b5b906000526020600020015490508060098381548110613c2e57613c2d614cb6565b5b906000526020600020018190555081600a600083815260200190815260200160002081905550600a6000858152602001908152602001600020600090556009805480613c7d57613c7c6155a4565b5b6001900381819060005260206000200160009055905550505050565b6000613ca483611c72565b905081600760008573ffffffffffffffffffffffffffffffffffffffff1673ffffffffffffffffffffffffffffffffffffffff168152602001908152602001600020600083815260200190815260200160002081905550806008600084815260200190815260200160002081905550505050565b828054613d24906148d2565b90600052602060002090601f016020900481019282613d465760008555613d8d565b82601f10613d5f57805160ff1916838001178555613d8d565b82800160010185558215613d8d579182015b82811115613d8c578251825591602001919060010190613d71565b5b509050613d9a9190613d9e565b5090565b5b80821115613db7576000816000905550600101613d9f565b5090565b6000604051905090565b600080fd5b600080fd5b60007fffffffff0000000000000000000000000000000000000000000000000000000082169050919050565b613e0481613dcf565b8114613e0f57600080fd5b50565b600081359050613e2181613dfb565b92915050565b600060208284031215613e3d57613e3c613dc5565b5b6000613e4b84828501613e12565b91505092915050565b60008115159050919050565b613e6981613e54565b82525050565b6000602082019050613e846000830184613e60565b92915050565b6000819050919050565b613e9d81613e8a565b8114613ea857600080fd5b50565b600081359050613eba81613e94565b92915050565b600060208284031215613ed657613ed5613dc5565b5b6000613ee484828501613eab565b91505092915050565b600081519050919050565b600082825260208201905092915050565b60005b83811015613f27578082015181840152602081019050613f0c565b83811115613f36576000848401525b50505050565b6000601f19601f8301169050919050565b6000613f5882613eed565b613f628185613ef8565b9350613f72818560208601613f09565b613f7b81613f3c565b840191505092915050565b60006020820190508181036000830152613fa08184613f4d565b905092915050565b600073ffffffffffffffffffffffffffffffffffffffff82169050919050565b6000613fd382613fa8565b9050919050565b613fe381613fc8565b82525050565b6000602082019050613ffe6000830184613fda565b92915050565b61400d81613fc8565b811461401857600080fd5b50565b60008135905061402a81614004565b92915050565b6000806040838503121561404757614046613dc5565b5b60006140558582860161401b565b925050602061406685828601613eab565b9150509250929050565b61407981613e8a565b82525050565b60006020820190506140946000830184614070565b92915050565b6000602082840312156140b0576140af613dc5565b5b60006140be8482850161401b565b91505092915050565b6000806000606084860312156140e0576140df613dc5565b5b60006140ee8682870161401b565b93505060206140ff8682870161401b565b925050604061411086828701613eab565b9150509250925092565b600080fd5b600080fd5b7f4e487b7100000000000000000000000000000000000000000000000000000000600052604160045260246000fd5b61415c82613f3c565b810181811067ffffffffffffffff8211171561417b5761417a614124565b5b80604052505050565b600061418e613dbb565b905061419a8282614153565b919050565b600067ffffffffffffffff8211156141ba576141b9614124565b5b6141c382613f3c565b9050602081019050919050565b82818337600083830152505050565b60006141f26141ed8461419f565b614184565b90508281526020810184848401111561420e5761420d61411f565b5b6142198482856141d0565b509392505050565b600082601f8301126142365761423561411a565b5b81356142468482602086016141df565b91505092915050565b60006020828403121561426557614264613dc5565b5b600082013567ffffffffffffffff81111561428357614282613dca565b5b61428f84828501614221565b91505092915050565b600080604083850312156142af576142ae613dc5565b5b600083013567ffffffffffffffff8111156142cd576142cc613dca565b5b6142d985828601614221565b925050602083013567ffffffffffffffff8111156142fa576142f9613dca565b5b61430685828601614221565b9150509250929050565b61431981613e54565b811461432457600080fd5b50565b60008135905061433681614310565b92915050565b6000806040838503121561435357614352613dc5565b5b60006143618582860161401b565b925050602061437285828601614327565b9150509250929050565b600067ffffffffffffffff82111561439757614396614124565b5b6143a082613f3c565b9050602081019050919050565b60006143c06143bb8461437c565b614184565b9050828152602081018484840111156143dc576143db61411f565b5b6143e78482856141d0565b509392505050565b600082601f8301126144045761440361411a565b5b81356144148482602086016143ad565b91505092915050565b6000806000806080858703121561443757614436613dc5565b5b60006144458782880161401b565b94505060206144568782880161401b565b935050604061446787828801613eab565b925050606085013567ffffffffffffffff81111561448857614487613dca565b5b614494878288016143ef565b91505092959194509250565b60006080820190506144b56000830187614070565b6144c26020830186614070565b6144cf6040830185613e60565b6144dc6060830184613e60565b95945050505050565b600080604083850312156144fc576144fb613dc5565b5b600061450a8582860161401b565b925050602061451b8582860161401b565b9150509250929050565b7f436f6e74726163742069732073746f7070656400000000000000000000000000600082015250565b600061455b601383613ef8565b915061456682614525565b602082019050919050565b6000602082019050818103600083015261458a8161454e565b9050919050565b7f43616e2774206d696e7420300000000000000000000000000000000000000000600082015250565b60006145c7600c83613ef8565b91506145d282614591565b602082019050919050565b600060208201905081810360008301526145f6816145ba565b9050919050565b7f53616c65206973206e6f74207374617274656400000000000000000000000000600082015250565b6000614633601383613ef8565b915061463e826145fd565b602082019050919050565b6000602082019050818103600083015261466281614626565b9050919050565b7f4d696e746564206d6178696d756d204e46540000000000000000000000000000600082015250565b600061469f601283613ef8565b91506146aa82614669565b602082019050919050565b600060208201905081810360008301526146ce81614692565b9050919050565b7f596f7520617265206e6f7420696e207768697465206c69737400000000000000600082015250565b600061470b601983613ef8565b9150614716826146d5565b602082019050919050565b6000602082019050818103600083015261473a816146fe565b9050919050565b7f4e487b7100000000000000000000000000000000000000000000000000000000600052601160045260246000fd5b600061477b82613e8a565b915061478683613e8a565b9250827fffffffffffffffffffffffffffffffffffffffffffffffffffffffffffffffff038211156147bb576147ba614741565b5b828201905092915050565b7f4e487b7100000000000000000000000000000000000000000000000000000000600052601260045260246000fd5b600061480082613e8a565b915061480b83613e8a565b92508261481b5761481a6147c6565b5b828204905092915050565b600061483182613e8a565b915061483c83613e8a565b92508282101561484f5761484e614741565b5b828203905092915050565b600061486582613e8a565b91507fffffffffffffffffffffffffffffffffffffffffffffffffffffffffffffffff82141561489857614897614741565b5b600182019050919050565b7f4e487b7100000000000000000000000000000000000000000000000000000000600052602260045260246000fd5b600060028204905060018216806148ea57607f821691505b602082108114156148fe576148fd6148a3565b5b50919050565b7f4e6f7420616e206f776e65720000000000000000000000000000000000000000600082015250565b600061493a600c83613ef8565b915061494582614904565b602082019050919050565b600060208201905081810360008301526149698161492d565b9050919050565b7f4552433732313a20617070726f76616c20746f2063757272656e74206f776e6560008201527f7200000000000000000000000000000000000000000000000000000000000000602082015250565b60006149cc602183613ef8565b91506149d782614970565b604082019050919050565b600060208201905081810360008301526149fb816149bf565b9050919050565b7f4552433732313a20617070726f76652063616c6c6572206973206e6f7420746f60008201527f6b656e206f776e6572206e6f7220617070726f76656420666f7220616c6c0000602082015250565b6000614a5e603e83613ef8565b9150614a6982614a02565b604082019050919050565b60006020820190508181036000830152614a8d81614a51565b9050919050565b7f4552433732313a2063616c6c6572206973206e6f7420746f6b656e206f776e6560008201527f72206e6f7220617070726f766564000000000000000000000000000000000000602082015250565b6000614af0602e83613ef8565b9150614afb82614a94565b604082019050919050565b60006020820190508181036000830152614b1f81614ae3565b9050919050565b7f455243373231456e756d657261626c653a206f776e657220696e646578206f7560008201527f74206f6620626f756e6473000000000000000000000000000000000000000000602082015250565b6000614b82602b83613ef8565b9150614b8d82614b26565b604082019050919050565b60006020820190508181036000830152614bb181614b75565b9050919050565b7f4e6f7420616e206f776e65725f32000000000000000000000000000000000000600082015250565b6000614bee600e83613ef8565b9150614bf982614bb8565b602082019050919050565b60006020820190508181036000830152614c1d81614be1565b9050919050565b7f455243373231456e756d657261626c653a20676c6f62616c20696e646578206f60008201527f7574206f6620626f756e64730000000000000000000000000000000000000000602082015250565b6000614c80602c83613ef8565b9150614c8b82614c24565b604082019050919050565b60006020820190508181036000830152614caf81614c73565b9050919050565b7f4e487b7100000000000000000000000000000000000000000000000000000000600052603260045260246000fd5b7f616c6c204e4654206973206d696e746564000000000000000000000000000000600082015250565b6000614d1b601183613ef8565b9150614d2682614ce5565b602082019050919050565b60006020820190508181036000830152614d4a81614d0e565b9050919050565b7f4552433732313a20696e76616c696420746f6b656e2049440000000000000000600082015250565b6000614d87601883613ef8565b9150614d9282614d51565b602082019050919050565b60006020820190508181036000830152614db681614d7a565b9050919050565b7f4e6f7420616e206f776e6572206f6620746f6b656e4964000000000000000000600082015250565b6000614df3601783613ef8565b9150614dfe82614dbd565b602082019050919050565b60006020820190508181036000830152614e2281614de6565b9050919050565b7f4552433732313a2061646472657373207a65726f206973206e6f74206120766160008201527f6c6964206f776e65720000000000000000000000000000000000000000000000602082015250565b6000614e85602983613ef8565b9150614e9082614e29565b604082019050919050565b60006020820190508181036000830152614eb481614e78565b9050919050565b7f4552433732314d657461646174613a20717565727920666f72206e6f6e65786960008201527f7374656e7420746f6b656e000000000000000000000000000000000000000000602082015250565b6000614f17602b83613ef8565b9150614f2282614ebb565b604082019050919050565b60006020820190508181036000830152614f4681614f0a565b9050919050565b7f696e636f7272656374206d6573736167652073656e6465720000000000000000600082015250565b6000614f83601883613ef8565b9150614f8e82614f4d565b602082019050919050565b60006020820190508181036000830152614fb281614f76565b9050919050565b7f596f7520617265206e6f7420696e2067696674206c697374206f7220616c726560008201527f61647920636c61696d6564000000000000000000000000000000000000000000602082015250565b6000615015602b83613ef8565b915061502082614fb9565b604082019050919050565b6000602082019050818103600083015261504481615008565b9050919050565b600081905092915050565b60008190508160005260206000209050919050565b60008154615078816148d2565b615082818661504b565b9450600182166000811461509d57600181146150ae576150e1565b60ff198316865281860193506150e1565b6150b785615056565b60005b838110156150d9578154818901526001820191506020810190506150ba565b838801955050505b50505092915050565b60006150f582613eed565b6150ff818561504b565b935061510f818560208601613f09565b80840191505092915050565b7f2e6a736f6e000000000000000000000000000000000000000000000000000000600082015250565b600061515160058361504b565b915061515c8261511b565b600582019050919050565b6000615173828561506b565b915061517f82846150ea565b915061518a82615144565b91508190509392505050565b7f4552433732313a206d696e7420746f20746865207a65726f2061646472657373600082015250565b60006151cc602083613ef8565b91506151d782615196565b602082019050919050565b600060208201905081810360008301526151fb816151bf565b9050919050565b7f4552433732313a20746f6b656e20616c7265616479206d696e74656400000000600082015250565b6000615238601c83613ef8565b915061524382615202565b602082019050919050565b600060208201905081810360008301526152678161522b565b9050919050565b7f4552433732313a207472616e736665722066726f6d20696e636f72726563742060008201527f6f776e6572000000000000000000000000000000000000000000000000000000602082015250565b60006152ca602583613ef8565b91506152d58261526e565b604082019050919050565b600060208201905081810360008301526152f9816152bd565b9050919050565b7f4552433732313a207472616e7366657220746f20746865207a65726f2061646460008201527f7265737300000000000000000000000000000000000000000000000000000000602082015250565b600061535c602483613ef8565b915061536782615300565b604082019050919050565b6000602082019050818103600083015261538b8161534f565b9050919050565b7f4552433732313a20617070726f766520746f2063616c6c657200000000000000600082015250565b60006153c8601983613ef8565b91506153d382615392565b602082019050919050565b600060208201905081810360008301526153f7816153bb565b9050919050565b7f4552433732313a207472616e7366657220746f206e6f6e20455243373231526560008201527f63656976657220696d706c656d656e7465720000000000000000000000000000602082015250565b600061545a603283613ef8565b9150615465826153fe565b604082019050919050565b600060208201905081810360008301526154898161544d565b9050919050565b600061549b82613e8a565b91506154a683613e8a565b9250826154b6576154b56147c6565b5b828206905092915050565b600081519050919050565b600082825260208201905092915050565b60006154e8826154c1565b6154f281856154cc565b9350615502818560208601613f09565b61550b81613f3c565b840191505092915050565b600060808201905061552b6000830187613fda565b6155386020830186613fda565b6155456040830185614070565b818103606083015261555781846154dd565b905095945050505050565b60008151905061557181613dfb565b92915050565b60006020828403121561558d5761558c613dc5565b5b600061559b84828501615562565b91505092915050565b7f4e487b7100000000000000000000000000000000000000000000000000000000600052603160045260246000fdfe697066733a2f2f516d5169664b7969336e427a486f777062676f5063787356537a4575333231464b426f6a556368754534393175792f48696464656e2e6a736f6ea2646970667358221220b11421a1a546b1f992c85317001bcec553392c1b87a8886c3b4112388362e3dd64736f6c63430008090033",
  "linkReferences": {},
  "deployedLinkReferences": {}
}